S00F0000706C61796572732E7372656315
S11300000C942A000C9447000C9447000C9447006D
S11300100C9447000C9447000C9447000C94470040
S11300200C9447000C9447000C9447000C94470030
S11300300C9447000C9447000C9447000C94470020
S11300400C9447000C9447000C9447000C94470010
S11300500C94470011241FBECFE5D8E0DEBFCDBF0E
S113006010E0A0E6B0E0E2E9F7E002C005900D92EE
S1130070A03AB107D9F720E0A0EAB0E001C01D9290
S1130080A83AB207E1F70E9430020C94C7030C941B
S11300900000423008F06DC04130A1F5813089F094
S11300A028F08230C9F0833011F108952AB381E039
S11300B090E002C0880F991F6A95E2F7822B8ABBF1
S11300C0089527B381E090E002C0880F991F6A95D4
S11300D0E2F7822B87BB089524B381E090E002C04D
S11300E0880F991F6A95E2F7822B84BB089521B388
S11300F081E090E002C0880F991F6A95E2F7822B95
S113010081BB0895813091F028F08230D9F083309A
S113011029F108952AB381E090E002C0880F991F65
S11301206A95E2F7809582238ABB089527B381E01C
S113013090E002C0880F991F6A95E2F780958223A8
S113014087BB089524B381E090E002C0880F991F13
S11301506A95E2F78095822384BB089521B381E0F8
S113016090E002C0880F991F6A95E2F78095822378
S113017081BB0895423008F06DC04130A1F5813053
S113018089F028F08230C9F0833011F108952BB33F
S113019081E090E002C0880F991F6A95E2F7822BF4
S11301A08BBB089528B381E090E002C0880F991FAB
S11301B06A95E2F7822B88BB089525B381E090E02D
S11301C002C0880F991F6A95E2F7822B85BB0895B8
S11301D022B381E090E002C0880F991F6A95E2F78C
S11301E0822B82BB0895813091F028F08230D9F0BF
S11301F0833029F108952BB381E090E002C0880F89
S1130200991F6A95E2F7809582238BBB089528B3E2
S113021081E090E002C0880F991F6A95E2F780950B
S1130220822388BB089525B381E090E002C0880F43
S1130230991F6A95E2F78095822385BB089522B3BE
S113024081E090E002C0880F991F6A95E2F78095DB
S1130250822382BB08956F3FA1F4813049F028F0D6
S1130260823049F0833051F008958FEF8ABB0895AE
S11302708FEF87BB08958FEF84BB08958FEF81BB09
S11302800895813041F028F0823039F0833039F01C
S113029008951ABA089517BA089514BA089511BAA8
S11302A008950F931F93CF93DF9300D000D0CDB761
S11302B0DEB7082F84E0898385E08A8386E08B8318
S11302C087E08C8310E014C0402F50E0012E02C060
S11302D0559547950A94E2F74170E1E0F0E0EC0FA0
S11302E0FD1FE10FF11D608180E00E94BA001F5FD5
S11302F0143050F30F900F900F900F90DF91CF9127
S11303001F910F91089541E063E081E00E94BA00DB
S11303108FE39FE10197F1F700C0000040E063E044
S113032081E00E94BA000895CF93C82F40E061E0B5
S113033081E00E94BA0040E062E081E00E94BA00DD
S11303408C2F82958F700E9451010E9483018C2F03
S11303500E9451010E948301CF910895CF93C82F29
S113036041E061E081E00E94BA0040E062E081E0A7
S11303700E94BA008C2F82958F700E9451010E94B6
S113038083018C2F0E9451010E948301CF91089513
S11303902FEF83EF91E0215080409040E1F700C0BF
S11303A0000082E00E9451010E94830182E00E94C9
S11303B051010E94830188E00E9451010E9483013F
S11303C08CE00E94940181E00E94940108950F93AF
S11303D01F93CF938C01C0E003C00E94AE01CF5F96
S11303E0F801EC0FF11D80818111F7CFCF911F919E
S11303F00F910895662329F0613011F4805C01C0E7
S113040080E080680E9494010895EF92FF920F9318
S11304101F93CF93DF93F82EE62ED42F8901842FD8
S1130420880F880F880F8F7780640E949401C0E042
S113043007C0F801EC0FF11D80810E94AE01CF5F6F
S1130440C830B8F36E2D8F2D0E94FA018D2F0E94B3
S1130450AE01DF91CF911F910F91FF90EF9008951E
S11304606FEF80E00E942B0141E061E081E00E9497
S1130470490041E062E081E00E94490041E063E01C
S113048081E00E9449000E94C80128E830E040E071
S113049050E061E070E082E090E00E94050228E80C
S11304A030E040E050E061E070E087E090E00E94DE
S11304B0050228E730E042E050E062E070E080E0CE
S11304C090E00E94050220E730E045E050E061E062
S11304D070E083E090E00E94050228E830E040E00C
S11304E050E060E070E087E090E00E94050220E8C0
S11304F030E041E050E061E070E082E090E00E9492
S113050005022FE38DE093E0215080409040E1F715
S113051000C0000028E830E040E050E061E070E016
S113052082E090E00E94050220EA30E043E050E0DF
S113053061E070E083E090E00E94050287EA91E6C2
S11305400197F1F700C0000028E630E046E050E0F3
S113055061E070E084E090E00E94050287EA91E6A1
S11305600197F1F700C0000020EA30E043E050E0DA
S113057061E070E084E090E00E94050287EA91E681
S11305800197F1F700C0000020E630E047E050E0BA
S113059061E070E085E090E00E94050287EA91E660
S11305A00197F1F700C0000020EA30E043E050E09A
S11305B061E070E085E090E00E94050287EA91E640
S11305C00197F1F700C0000020E730E045E050E07B
S11305D060E070E086E090E00E94050220E830E0F0
S11305E041E050E060E070E087E090E00E940502A6
S11305F09FE32DE083E0915020408040E1F700C06C
S1130600000028E830E040E050E060E070E087E07F
S113061090E00E94050220EA30E043E050E060E010
S113062070E086E090E00E94050287EA91E6019777
S1130630F1F700C0000020E730E045E050E060E062
S113064070E085E090E00E94050287EA91E6019758
S1130650F1F700C0000020EA30E043E050E060E041
S113066070E085E090E00E94050287EA91E6019738
S1130670F1F700C0000020E730E045E050E060E022
S113068070E084E090E00E94050287EA91E6019719
S1130690F1F700C0000020EA30E043E050E060E001
S11306A070E084E090E00E94050287EA91E60197F9
S11306B0F1F700C0000020E730E045E050E060E0E2
S11306C070E083E090E00E94050287EA91E60197DA
S11306D0F1F700C0000020EA30E043E050E060E0C1
S11306E070E083E090E00E94050287EA91E60197BA
S11306F0F1F700C0000020E730E045E050E060E0A2
S113070070E082E090E00E94050287EA91E601979A
S1130710F1F700C0000020EA30E043E050E060E080
S113072070E082E090E00E94050287EA91E601977A
S1130730F1F700C0000020E730E045E050E060E061
S113074070E081E090E00E94050287EA91E601975B
S1130750F1F700C0000020EA30E043E050E060E040
S113076070E081E090E00E94050287EA91E601973B
S1130770F1F700C0000081E00E94940160E082E093
S11307800E94FA0180E990E00E94E701FFCFF8940B
S1050790FFCF95
S11307920E1F1F0E0000000000000E1F1F0E00009F
S11307A2000000000E1F1F0E1F1010101010101F4B
S11307B20E0A0E041F040A110E0A0E041F040A0A6A
S11307C247304F4F414141414C4C4C2121210000C3
S9030000FC
